2073115040000001769792091163220040000179210000000000002AE/17210902290     N15DSGD2#00   150420
207311504211420000000209116322004000017921000000000000 176979/AIN/SAL     N15CSGD2#00   150420
2073115040000007503182091163320040000009857000000073392AE/61890956530      15DUSD2#00   150420
