2073115040000001769792091163220040000179210000000000002AE/17210902290     N15DSGD2#00   150420
207311504211420000000209116322004000017921000000000000 176979/AIN/SAL     N15CSGD2#00   150420
2073115040000007503182091163320040000009857000000073392AE/61890956530      15DUSD2#00   150420
207311504007400000000209116332004000000985700000007339 750318/DS           15CUSD2#00   150420
2073115040000001769782091163420040000043565000000000002AE/17210902032     N15DSGD2#00   150420
207311504211420000000209116342004000004356500000000000 176978/AIN/SAL     N15CSGD2#00   150420
2073115040000007503212091163520040000034556000000000002AE/85104820130      15DSGD2#00   150420
207311504007200000000209116352004000003455600000000000 750321/YH           15CSGD2#00   150420
2073115040000007502192091163620040000036988000000275402AE/61573880015      15DUSD2#00   150420
207311504007902000000209116362004000003698800000027540 750219/YH           15CUSD2#00   150420
2073115040000007503172091163720040000006782000000050502AE/60339914545      15DUSD2#00   150420
207311504007900000000209116372004000000678200000005050 750317/AR           15CUSD2#00   150420
2073115040000007503282091163820040000029871000000000002AE/21705605062      15DSGD2#00   150420
207311504007904000000209116382004000002987100000000000 750328/AR           15CSGD2#00   150420
2073115040000007503432091163920040000040624000000000002AE/61891612345      15DSGD2#00   150420
207311504007100000000209116392004000004062400000000000 750343/YH           15CSGD2#00   150420
2073115040000007499232091164020040000026226000000000002AE/61891610190      15DSGD2#00   150420
207311504483652000000209116402004000002622600000000000 749923/AR           15CSGD2#00   150420
2073115048228860000002191164120040000003352000000024962AE/80706470763     N15DUSD2#00   150420
207311504000000000169219116412004000000335200000002496 822886/            N15CUSD2#00   150420
2073115041763630000002191164221040000344883000000000002AE/17209715554     N15DSGD2#00   150421
207311504000000600487219116422104000034488300000000000 176363/            N15CSGD2#00   150421
2073115040000001763632091164321040000344883000000000002AE/17209715554     N15DSGD2#00   150421
207311504601973000000209116432104000034488300000000000 176363/RAGU/SAL    N15CSGD2#00   150421
2073115040000008870252029849821040000011595000000000002AI/23520606106     N15DSGD2#00   150421
207311504484114000000202984982104000001159500000000000 887025/UNION AIR   N15CSGD2#00   150421
2073115040000007495562091164421040000028217000000000002AE/16076174770     N15DSGD2#00   150421
207311504206180000000209116442104000002821700000000000 749556/FR          N15CSGD2#00   150421
2073115040000007495152091164521040000046025000000000002AE/16076174906     N15DSGD2#00   150421
207311504206180000000209116452104000004602500000000000 749515/FR          N15CSGD2#00   150421
2073115040000007495242091164621040000005692000000000002AE/16076174906     N15DSGD2#00   150421
207311504206180000000209116462104000000569200000000000 749524/FR          N15CSGD2#00   150421
2073115040000008865062029849921040000455886000003390142AI/61889929313      15DUSD2#00   150421
207311504224610000000202984992104000045588600000339014 886506/INTERNATIO   15CUSD2#00   150421
2073115040000007497812091164721040000005530000000000002AE/85104814180     N15DSGD2#00   150421
207311504206180000000209116472104000000553000000000000 749781/FR          N15CSGD2#00   150421
2073115040000008867082029850021040000002500000000000002AI/17210482231     N15DSGD2#00   150421
207311504480909000000202985002104000000250000000000000 886708/BESTE SING  N15CSGD2#00   150421
2073115040000008869842029850121040000406343000003021722AI/61889929486      15DUSD2#00   150421
207311504224610000000202985012104000040634300000302172 886984/INTERNATIO   15CUSD2#00   150421
2073115040000007497872091164821040000010556000000000002AE/85104814180     N15DSGD2#00   150421
207311504206180000000209116482104000001055600000000000 749787/FR          N15CSGD2#00   150421
2073115040000007493112091164921040000025595000000000002AE/16076174733     N15DSGD2#00   150421
207311504206180000000209116492104000002559500000000000 749311/FR          N15CSGD2#00   150421
2073115040000007488882091165021040000012866000000000002AE/16076174696     N15DSGD2#00   150421
207311504206180000000209116502104000001286600000000000 748888/FR          N15CSGD2#00   150421
2073115040000007489932091165121040000005556000000000002AE/16076174711     N15DSGD2#00   150421
207311504206180000000209116512104000000555600000000000 748993/FR          N15CSGD2#00   150421
2073115040000008853192029850221040000007458000000000002AI/16077585163      15DSGD2#00   150421
207311504238180000000202985022104000000745800000000000 885319/MOLEX SING   15CSGD2#00   150421
2073115040000008862362029850321040000005500000000000002AI/16077585174      15DSGD2#00   150421
207311504238180000000202985032104000000550000000000000 886236/MOLEX SING   15CSGD2#00   150421
2073115040000008864562029850421040000034944000000000002AI/16078322123      15DSGD2#00   150421
207311504238180000000202985042104000003494400000000000 886456/MOLEX SING   15CSGD2#00   150421
2073115040000008868722029850521040000008475000000000002AI/16078322296      15DSGD2#00   150421
207311504238180000000202985052104000000847500000000000 886872/MOLEX SING   15CSGD2#00   150421
2073115040000008857972029850621040000221813000000000002AI/01618148631      15DSGD2#00   150421
207311504238180000000202985062104000022181300000000000 885797/MOLEX SING   15CSGD2#00   150421
2073115040000008863842029850721040000289702000000000002AI/01618148664      15DSGD2#00   150421
207311504238180000000202985072104000028970200000000000 886384/MOLEX SING   15CSGD2#00   150421
2073115040000008864522029850821040000026673000000000002AI/16078322123      15DSGD2#00   150421
207311504238180000000202985082104000002667300000000000 886452/MOLEX SING   15CSGD2#00   150421
2073115040000008865552029850921040000066040000000000002AI/60761778640      15DSGD2#00   150421
207311504258230000000202985092104000006604000000000000 886555/THE SWATCH   15CSGD2#00   150421
2073115040000008865462029851021040000097376000000000002AI/60761778640      15DSGD2#00   150421
207311504258230000000202985102104000009737600000000000 886546/THE SWATCH   15CSGD2#00   150421
2073115040000008865512029851121040000019041000000000002AI/60761778640      15DSGD2#00   150421
207311504258230000000202985112104000001904100000000000 886551/THE SWATCH   15CSGD2#00   150421
2073115040000008865612029851221040000189676000000000002AI/60761778640      15DSGD2#00   150421
207311504258230000000202985122104000018967600000000000 886561/THE SWATCH   15CSGD2#00   150421
2073115040000008865592029851321040000031765000000000002AI/60761778640      15DSGD2#00   150421
207311504258230000000202985132104000003176500000000000 886559/THE SWATCH   15CSGD2#00   150421
2073115040000008870222029851421040000004530000000000002AI/93380993975     N15DSGD2#00   150421
207311504484263000000202985142104000000453000000000000 887022/UTI WORLDW  N15CSGD2#00   150421
2073115040000007491722091165221040000336884000000000002AE/72445105491     N15DSGD2#00   150421
207311504250880000000209116522104000033688400000000000 749172/FR          N15CSGD2#00   150421
2073115040000008864892029851521040000067297000000000002AI/61888413662      15DSGD2#00   150421
207311504258230000000202985152104000006729700000000000 886489/THE SWATCH   15CSGD2#00   150421
2073115047491720000002191165321040000336884000000000002AE/72445105491     N15DSGD2#00   150421
207311504000000250880219116532104000033688400000000000 749172/FR          N15CSGD2#00   150421
2073115040000007491722091165421040000337784000000000002AE/72445105491     N15DSGD2#00   150421
207311504250880000000209116542104000033778400000000000 749172/FR          N15CSGD2#00   150421
2073115040000008864912029851621040000026966000000000002AI/61888413662      15DSGD2#00   150421
207311504258230000000202985162104000002696600000000000 886491/THE SWATCH   15CSGD2#00   150421
2073115040000008855162029851721040000229828000000000002AI/61888413651      15DSGD2#00   150421
207311504258230000000202985172104000022982800000000000 885516/THE SWATCH   15CSGD2#00   150421
2073115040000008870602029851821040000002520000000000002AI/61887345915      15DSGD2#00   150421
207311504603211000000202985182104000000252000000000000 887060/EXPEDITORS   15CSGD2#00   150421
2073115040000008857932029851921040000209692000000000002AI/60761778636      15DSGD2#00   150421
207311504258230000000202985192104000020969200000000000 885793/THE SWATCH   15CSGD2#00   150421
2073115040000008857962029852021040000018730000000000002AI/60761778636      15DSGD2#00   150421
207311504258230000000202985202104000001873000000000000 885796/THE SWATCH   15CSGD2#00   150421
2073115040000008871312029852121040000004500000000000002AI/                 15DSGD2#00   150421
207311504266800000000202985212104000000450000000000000 887131/LEICA INST   15CSGD2#00   150421
2073115040000007491482091165521040000038037000000000002AE/61891609641     N15DSGD2#00   150421
207311504250880000000209116552104000003803700000000000 749148/FR          N15CSGD2#00   150421
2073115040000008871362029852221040000004500000000000002AI/                 15DSGD2#00   150421
207311504266800000000202985222104000000450000000000000 887136/LEICA INST   15CSGD2#00   150421
2073115040000008871392029852321040000004500000000000002AI/                 15DSGD2#00   150421
207311504266800000000202985232104000000450000000000000 887139/LEICA INST   15CSGD2#00   150421
2073115040000007493332091165621040000068798000000000002AE/61891609840     N15DSGD2#00   150421
207311504250880000000209116562104000006879800000000000 749333/FR          N15CSGD2#00   150421
2073115040000007487192091165721040000000168000000001252AE/                 15DUSD2#00   150421
2073115040000007487202091165721040000000223000000001662AE/                 15DUSD2#00   150421
2073115040000007487212091165721040000000558000000004152AE/                 15DUSD2#00   150421
2073115040000007487222091165721040000008762000000065162AE/                 15DUSD2#00   150421
2073115040000007487232091165721040000000949000000007062AE/                 15DUSD2#00   150421
2073115040000007487242091165721040000002958000000022002AE/                 15DUSD2#00   150421
2073115040000007487252091165721040000021876000000162682AE/                 15DUSD2#00   150421
2073115040000007487262091165721040000000558000000004152AE/                 15DUSD2#00   150421
2073115040000007487272091165721040000000168000000001252AE/                 15DUSD2#00   150421
2073115040000007487282091165721040000011218000000083422AE/                 15DUSD2#00   150421
2073115040000007487292091165721040000009710000000072212AE/                 15DUSD2#00   150421
2073115040000007487302091165721040000000335000000002492AE/                 15DUSD2#00   150421
2073115040000007487312091165721040000008204000000061012AE/                 15DUSD2#00   150421
2073115040000007487322091165721040000000838000000006232AE/                 15DUSD2#00   150421
2073115040000007487332091165721040000001619000000012042AE/                 15DUSD2#00   150421
2073115040000007487342091165721040000002289000000017022AE/                 15DUSD2#00   150421
2073115040000007487352091165721040000000056000000000422AE/                 15DUSD2#00   150421
2073115040000007487362091165721040000000223000000001662AE/                 15DUSD2#00   150421
2073115040000007487372091165721040000003628000000026982AE/                 15DUSD2#00   150421
2073115040000007487382091165721040000000446000000003322AE/                 15DUSD2#00   150421
2073115040000007487392091165721040000000391000000002912AE/                 15DUSD2#00   150421
2073115040000007487402091165721040000013562000000100852AE/                 15DUSD2#00   150421
2073115040000007487412091165721040000001284000000009552AE/                 15DUSD2#00   150421
2073115040000007487422091165721040000006418000000047732AE/                 15DUSD2#00   150421
2073115040000007487432091165721040000000335000000002492AE/                 15DUSD2#00   150421
2073115040000007487442091165721040000002847000000021172AE/                 15DUSD2#00   150421
2073115040000007487452091165721040000001396000000010382AE/                 15DUSD2#00   150421
2073115040000007487462091165721040000000056000000000422AE/                 15DUSD2#00   150421
2073115040000007487472091165721040000000446000000003322AE/                 15DUSD2#00   150421
2073115040000007487482091165721040000000838000000006232AE/                 15DUSD2#00   150421
2073115040000007487492091165721040000003851000000028642AE/                 15DUSD2#00   150421
2073115040000007487502091165721040000228808000001701502AE/                 15DUSD2#00   150421
2073115040000007487512091165721040000011608000000086322AE/                 15DUSD2#00   150421
2073115040000007487522091165721040000003683000000027392AE/                 15DUSD2#00   150421
2073115040000007487532091165721040000021207000000157702AE/                 15DUSD2#00   150421
2073115040000007487542091165721040000000726000000005402AE/                 15DUSD2#00   150421
207311504254300000000209116572104000037224200000276816 254300/VRU731       15CUSD2#00   150421
